:020000040800F2
:100000000040012051020008BD2B0008C12B000850
:10001000C52B0008C92B0008CD2B000800000000EC
:10002000000000000000000000000000D12B0008CC
:10003000D52B000800000000D92B0008DD2B00089C
:100040003923000839230008392300083923000820
:100050003923000839230008392300083923000810
:100060003923000839230008392300083923000800
:1000700039230008392300083923000839230008F0
:1000800039230008392300083923000839230008E0
:10009000392300083923000839230008E92B000818
:1000A00039230008392300083923000839230008C0
:1000B00039230008392300083923000839230008B0
:1000C00039230008392300083923000839230008A0
:1000D0003923000839230008392300083923000890
:1000E0003923000839230008392300083923000880
:1000F00039230008000000003923000839230008D4
:10010000392300083923000839230008392300085F
:1001100039230008392300083923000800000000B3
:10012000392300080000000000000000000000006B
:1001300000000000000000005FF808F100B583B087
:1001400002F072F8304B314A1360314A1360314B80
:10015000314A03E011681960043304322F498B429D
:10016000F8D32A4B1A682E4B9A4204D1284B1A68AE
:100170002C4B9A4200D0FEE7234B2B4A13602B4AAC
:1001800013602B4B02E000221A600433294A934289
:10019000F9D3254B1B6813B9244B1B6803B1FEE749
:1001A00002F04EF8694601A802F01AF8224C234BDF
:1001B0001C1BA410002504E01F4B53F82530984762
:1001C0000135AC42F8DC1E4C1E4B1C1BA410002554
:1001D00004E01B4B53F8253098470135AC42F8DC5E
:1001E0000099019802F098FB0546174C174B1C1B11
:1001F000A41004E0013C144B53F824309847002C21
:10020000F8DC284601F0C8FFBABADECA00000020B8
:10021000E001002000000020DC390008E40100209B
:100220007856341232547698E4010020640300209A
:10023000E4010020680300207C0300087C03000820
:100240007C0300087C0300087C0300087C03000892
:1002500008B5FFF773FF00BF00BEFEE71EF0040FF6
:100260000CBFEFF30880EFF309807146364A104760
:100270002DE9F04182B004468846084B5E6B9F6BC7
:100280009D6A074801F0B4FFCDF800803B46324636
:100290002946204601F0D8FF00BEFEE700ED00E051
:1002A000BC37000800BEFEE71EF0040F0CBFEFF3E2
:1002B0000880EFF309807146244A10472DE9F04188
:1002C00082B004468846084B5E6B9F6B9D6A074868
:1002D00001F08EFFCDF800803B463246294620468D
:1002E00001F0B2FF00BEFEE700ED00E0CC370008F1
:1002F0001EF0040F0CBFEFF30880EFF30980714686
:10030000134A10472DE9F04182B004468846084B55
:100310005E6B9F6B9D6A074801F06AFFCDF8008015
:100320003B4632462946204601F08EFF00BEFEE7DE
:1003300000ED00E0D837000800BEFEE700BEFEE793
:1003400000BEFEE77047000071020008BD02000811
:040350000503000899
:10035400DC39000800000020E4010020DC3900083A
:100364000000001000000010E401002068030020D9
:08037400000000100000001061
:10037C0010B50446074B1B680748A0FB03308009E7
:10038C0000F084F8002221464FF0FF3000F040F8D6
:10039C00002010BD0C000020D34D621008B50320C6
:1003AC0000F024F80020FFF7E3FF02F029FB002007
:1003BC0008BD00BF024A136801331360704700BFC9
:1003CC0080020020014B1868704700BF800200209B
:1003DC0010B582B00190FFF7F5FF0446FFF7F2FF6E
:1003EC00001B019B9842F9D302B010BD074AD36899
:1003FC0023F4E0631B041B0C000200F4E0601843C0
:10040C0040F0BF6040F40030D060704700ED00E079
:10041C0030B4164BDB68C3F30223C3F10704042C7E
:10042C0028BF04241D1D062D01D9DD1E00E000256A
:10043C00012303FA04F4013C2140A940AB40013BE9
:10044C001A400A43002806DA00F00F001201D2B25B
:10045C00074B1A5407E01201D2B200F1604000F5CC
:10046C00614080F8002330BC704700BF00ED00E015
:10047C0014ED00E0420900F01F00012303FA00F024
:10048C00014B43F82200704700E100E00138B0F165
:10049C00807F0AD2064B5860F021064A82F823105E
:1004AC000020986007221A6070470120704700BF37
:1004BC0010E000E000ED00E0042805D1054A1368C7
:1004CC0043F0040313607047024A136823F00403DB
:1004DC001360704710E000E0704700BF08B5FFF7ED
:1004EC00FBFF08BDF0B583B00023C2E001249C40A3
:1004FC00224000F0BD804D68022D01D0122D10D18C
:10050C00DE08083650F826C003F00705AF000F25AB
:10051C00BD402CEA050E0D69BD404EEA050540F8BC
:10052C00265005685F000326BE40F64305EA060E1A
:10053C004D6805F00305BD404EEA050505604D68A4
:10054C0005F1FF3EBEF1010F03D9112D01D0122D83
:10055C0010D1856806EA050ECD68BD404EEA05054A
:10056C008560456825EA04044D68C5F300159D4077
:10057C0025434560C46826408C68BC403443C46045
:10058C004C6814F0805F73D03D4C256A45F0010532
:10059C002562246A04F001040194019C9E08B51C98
:1005AC00384C54F8257003F00304A4000F25A54023
:1005BC0027EA0507344DA84219D005F58065A842F5
:1005CC0017D005F58065A84215D005F58065A842C1
:1005DC0013D005F58065A84211D005F58065A842B9
:1005EC000FD005F58065A8420DD106250CE000253D
:1005FC000AE0012508E0022506E0032504E00425B5
:10060C0002E0052500E0072505FA04F43C43023618
:10061C001C4D45F826401D4C2568D44305EA0406BC
:10062C004F6817F4803F01D042EA0506174D2E6043
:10063C006D6804EA05064F6817F4003F01D042EAE2
:10064C000506124D6E60AD6804EA05064F6817F496
:10065C00801F01D042EA05060C4DAE60ED682C40BF
:10066C004E6816F4001F01D042EA0504074AD46014
:10067C0001330A6832FA03F47FF438AF03B0F0BDEB
:10068C00003802400000014000000240000401401C
:10069C0008B5044B5B69034203D0024B586102F06E
:1006AC009FF808BD0004014003685A6912F4806F7A
:1006BC000DD06FF480625A6104230364002303633A
:1006CC00202280F83D2080F83C300120704700202B
:1006DC00704700BFF8B506460C4617461D4614E099
:1006EC00B5F1FF3F11D02DB1FFF76CFE069BC01A80
:1006FC0085420AD200233363202286F83D2086F8F7
:10070C003E3086F83C300320F8BDC4F30743012B80
:10071C0008D133685B6924EA03039BB2B3FA83F311
:10072C005B0907E033689B6924EA03039BB2B3FAC5
:10073C0083F35B09BB42D3D00020F8BDF8B5044667
:10074C000D4616461F4629E023685A6912F4806F3D
:10075C0012D01A6842F400721A6023686FF4806237
:10076C005A610423236400232363202284F83D2050
:10077C0084F83C300120F8BDB6F1FF3F0ED026B115
:10078C00FFF720FEC01B864208D2002323632022E1
:10079C0084F83D2084F83C300320F8BDC5F30743B2
:1007AC00012B08D123685B6925EA03039BB2003354
:1007BC0018BF012307E023689B6925EA03039BB25A
:1007CC00003318BF0123002BBED10020F8BD00BFA1
:1007DC00F0B583B004460F4615461E46C36A042B7B
:1007EC0006D0C36A012B03D0C36A13F5803F05D131
:1007FC002268136843F48073136007E0036B122BB9
:10080C0004D10268136843F48073136000962B467E
:10081C0000224FF001112046FFF75CFF58BB236903
:10082C00B3F5804F04D1236807F0FE071F6115E074
:10083C002268FB1103F0060343F0F0031361334607
:10084C002A4611492046FFF779FF20B1236C042B6F
:10085C0013D1012314E02368FFB21F6133462A46EB
:10086C000A492046FFF76AFF034648B1236C042B64
:10087C0005D1012304E0032302E0032300E003235A
:10088C00184603B0F0BD00BF0800010002000100D3
:10089C0070B504460D46164619E02046FFF704FFD6
:1008AC00E0B9B5F1FF3F12D025B1FFF78BFD801BEE
:1008BC0085420CD2236C43F0200323640023236372
:1008CC00202284F83D2084F83C30032070BD23683E
:1008DC005B6913F0800FE0D0002070BD012070BD6B
:1008EC002DE9F04184B005460E46174698460B9C00
:1008FC000268136843F4806313600268136843F45E
:10090C008073136000940A9B00224FF00111FFF7D3
:10091C00E1FE002874D12B68F6B206F0FE021A61D3
:10092C0023460A9A3F492846FFF708FF20B12B6C53
:10093C00042B67D1012370E0002303932B685A69C1
:10094C0003929B690393039B22460A992846FFF75F
:10095C009FFF48B12B6C042B56D12A68136843F4C3
:10096C0000731360012358E0B8F1010F03D12B6819
:10097C00FFB21F6115E02B683A0A1A6122460A99E8
:10098C002846FFF785FF48B12B6C042B3ED12A6813
:10099C00136843F40073136001233EE02B68FFB22D
:1009AC001F6122460A992846FFF772FF48B12B6C4B
:1009BC00042B2DD12A68136843F4007313600123B0
:1009CC002BE02A68136843F48073136000940A9B2D
:1009DC0000224FF001112846FFF77CFED0B92B689E
:1009EC0046F001061E6123460A9A0E492846FFF777
:1009FC00A5FE034688B12B6C042B0DD101230CE012
:100A0C0003230AE0032308E0032306E0032304E0A6
:100A1C00032302E0032300E00323184604B0BDE8DF
:100A2C00F08100BF0200010070B504460D46164669
:100A3C0019E02046FFF738FEE0B9B5F1FF3F12D0C0
:100A4C0025B1FFF7BFFC801B85420CD2236C43F011
:100A5C002003236400232363202284F83D2084F8A0
:100A6C003C30032070BD23685B6913F0040FE0D0A9
:100A7C00002070BD012070BD70B505460C461646B1
:100A8C0022E05A6912F0100F0CD06FF010025A616C
:100A9C0000232B642B63202285F83D2085F83C3005
:100AAC00012070BD24B1FFF78DFC801B84420BD25A
:100ABC002B6C43F020032B64202385F83D3000235E
:100ACC0085F83C30032070BD2B685A6912F0400F3A
:100ADC00D7D0002070BD00BF002800F0A38070B5F7
:100AEC00044690F83D3013F0FF0F04D1002380F83A
:100AFC003C3001F0D5FF01F07FF84C4B984240F2AE
:100B0C009380242384F83D302268136823F001037A
:100B1C001360474BA3FB00239B0C21684A6822F00F
:100B2C003F021A434A6025682A6A22F03F0266682F
:100B3C0040498E4201D8013308E04FF4967101FB15
:100B4C0003F33D49A1FB03139B09013313432B62B0
:100B5C002568EB6923F44F4323F0FF0362683549A2
:100B6C008A4208D85200B0FBF2F0C0F30B02032A01
:100B7C002BD8042029E0A6684EB902EB4201B0FB49
:100B8C00F1F1C1F30B01B1FA81F149090AE002EB71
:100B9C00820101EB8101B0FBF1F1C1F30B01B1FA60
:100BAC0081F1490981B936B902EB4202B0FBF2F08E
:100BBC0040F4004009E002EB820202EB8202B0FB3F
:100BCC00F2F040F4404000E001201843E861216855
:100BDC000B6823F0C002E069236A034313430B60E4
:100BEC0021688B6823F4034222F0FF022069E3683A
:100BFC00034313438B602168CB6823F0FF026069C9
:100C0C00A36903431343CB602268136843F00103C9
:100C1C00136000202064202384F83D30206384F886
:100C2C003E0070BD01207047012070BD7F841E0006
:100C3C0083DE1B43A0860100D34D62102DE9F041E9
:100C4C0084B004460D4690461F46FFF7BBFB94F854
:100C5C003D30DBB2202B40F0A280064600901923D9
:100C6C0001224FF002112046FFF734FD002840F01E
:100C7C00988094F83C30012B00F09580012384F887
:100C8C003C3023681A6812F0010F03D11A6842F045
:100C9C0001021A602268136823F400631360212395
:100CAC0084F83D30102384F83E3000232364C4F8CC
:100CBC0024806785A3F58033E362638D23853346F7
:100CCC000A9A29462046FFF783FD054660B1236C3E
:100CDC00042B04D1002384F83C30012568E0002368
:100CEC0084F83C30032563E00023039323685A699E
:100CFC0003929B690393039B40E032460A9920467A
:100D0C00FFF7C6FD48B1236C042B4ED12268136843
:100D1C0043F40073136001254AE02268636A591C8E
:100D2C0061621B781361638D9BB2013B9BB263853F
:100D3C00238D013B238523685A6912F0040F0DD0D3
:100D4C0067B1626A511C616212781A61638D9BB241
:100D5C00013B9BB26385238D013B238532460A9967
:100D6C002046FFF761FE48B1236C042B1FD122688B
:100D7C00136843F400731360012519E0238D002BD5
:100D8C00BBD12268136843F400731360202384F8EA
:100D9C003D30002384F83E3084F83C3008E00225D6
:100DAC0006E0022504E0022502E0032500E003250D
:100DBC00284604B0BDE8F0812DE9F04387B0044625
:100DCC000D4690469946BDF83C60FFF7FBFA94F847
:100DDC003D30DBB2202B40F0518107460E9B002B9F
:100DEC0000F04E81002E00F04D810090192301225D
:100DFC004FF002112046FFF76DFC002840F04481B3
:100E0C0094F83C30012B00F04181012384F83C30F4
:100E1C0023681A6812F0010F03D11A6842F001021C
:100E2C001A602268136823F400631360222384F889
:100E3C003D30402384F83E30002323640E9B6362D4
:100E4C0066859A4BE362638D23850197109B009313
:100E5C004B46424629462046FFF742FD054660B107
:100E6C00236C042B04D1002384F83C30012518E1B9
:100E7C00002384F83C30032513E1238D012B11D181
:100E8C002268136823F480631360002303932368A0
:100E9C005A6903929A690392039A1A6842F400728F
:100EAC001A60DEE0022B12D12268136823F48063EF
:100EBC0013602268136843F40063136000230493E7
:100ECC0023685A6904929B690493049BC9E000232C
:100EDC00059323685A6905929B690593059BC0E0AD
:100EEC00032B00F29380012B1AD13A46109920461D
:100EFC00FFF7C2FD28B1236C202B40F0C9800325DD
:100F0C00CFE0636A5A1C6262226812691A70238DE0
:100F1C00013B2385638D9BB2013B9BB26385A0E0B3
:100F2C00022E2BD10097109B002261492046FFF71F
:100F3C00D1FB002840F0AE802268136843F40073A4
:100F4C001360636A5A1C6262226812691A70238DDC
:100F5C00013B2385638D9BB2013B9BB26385636A26
:100F6C005A1C6262226812691A70238D013B238518
:100F7C00638D9BB2013B9BB2638572E00097109B23
:100F8C0000224B492046FFF7A5FB002840F0848047
:100F9C002268136823F480631360636A5A1C6262CC
:100FAC00226812691A70238D013B2385638D9BB2D5
:100FBC00013B9BB263850097109B00223C49204665
:100FCC00FFF788FB002869D12268136843F400738B
:100FDC001360636A5A1C6262226812691A70238D4C
:100FEC00013B2385638D9BB2013B9BB26385636A96
:100FFC005A1C6262226812691A70238D013B238588
:10100C00638D9BB2013B9BB263852AE03A461099F3
:10101C002046FFF731FD20B1236C202B40D1032556
:10102C003FE0636A5A1C6262226812691A70238D4F
:10103C00013B2385638D9BB2013B9BB26385236887
:10104C005A6912F0040F0CD0626A511C61621B6960
:10105C001370238D013B2385638D9BB2013B9BB2A7
:10106C006385238D002B7FF43BAF202384F83D3028
:10107C00002384F83E3084F83C3012E0022510E066
:10108C0001250EE001250CE002250AE0022508E00E
:10109C00012506E0032504E0032502E0032500E01A
:1010AC000125284607B0BDE8F08300BF0000FFFF14
:1010BC0004000100024B186800F4C050704700BFD8
:1010CC000070004030B583B0204B9B6813F0F00FDC
:1010DC0020D105461D4B5B6A13F0805F02D0FFF7F1
:1010EC00E9FF0FE0194C636A43F080536362636A53
:1010FC0003F080530193019BFFF7DCFF636A23F03D
:10110C0080536362B0F5C05F06D1B5F5404F05D092
:10111C00002104E0002102E0002100E0012121B1C6
:10112C000B4A136843F004031360094A136823F055
:10113C0001030B431360136803F00103994201D0C0
:10114C00012000E0002003B030BD00BF0038024099
:10115C00003C024070B582B00446036813F0010FE6
:10116C0000F08E80B34B9B6803F00C03082B0AD065
:10117C00B04B9B6803F00C030C2B1BD1AD4B9B6845
:10118C0013F4803F16D04FF4003393FAA3F3A94B1A
:10119C001A684FF4003393FAA3F3B3FA83F303F012
:1011AC001F0322FA03F313F0010F69D06368002BBD
:1011BC0066D170E36368012B05D19E4A136843F432
:1011CC00803313601FE04BB99A4B1A6822F48032BB
:1011DC001A601A6822F480221A6014E0052B09D1D7
:1011EC00944B1A6842F480221A601A6842F48032D6
:1011FC001A6008E08F4B1A6822F480321A601A6861
:10120C0022F480221A606368EBB1FFF7DBF8054625
:10121C0005E0FFF7D7F8401B642800F23E834FF43B
:10122C00003393FAA3F3834B1A684FF4003393FA09
:10123C00A3F3B3FA83F303F01F0322FA03F313F0BF
:10124C00010FE6D01CE0FFF7BDF8054605E0FFF7FF
:10125C00B9F8401B642800F222834FF4003393FA50
:10126C00A3F3744B1A684FF4003393FAA3F3B3FA55
:10127C0083F303F01F0322FA03F313F0010FE6D1FB
:10128C00236813F0020F00F093806A4B9B6803F005
:10129C000C03042B0AD0674B9B6803F00C030C2B3C
:1012AC0028D1644B9B6813F4803F23D1022393FA1B
:1012BC00A3F3604B1A68022393FAA3F3B3FA83F3F4
:1012CC0003F01F0322FA03F313F0010F03D0E368BA
:1012DC00012B40F0E6825748436823F4F851236908
:1012EC004FF4F85292FAA2F2B2FA82F293400B4304
:1012FC0043605DE0E368A3B3012292FAA2F3B3FA70
:10130C0083F39B0003F1844303F58E031A60FFF70C
:10131C0059F8054605E0FFF755F8401B022800F286
:10132C00C282022393FAA3F3424B1A68022393FA64
:10133C00A3F3B3FA83F303F01F0322FA03F313F0BE
:10134C00010FE8D03B48436823F4F85123694FF46C
:10135C00F85292FAA2F2B2FA82F293400B43436033
:10136C0026E0012393FAA3F3B3FA83F39B0003F172
:10137C00844303F58E0300221A60FFF723F8054619
:10138C0005E0FFF71FF8401B022800F28E820223B3
:10139C0093FAA3F3274B1A68022393FAA3F3B3FA35
:1013AC0083F303F01F0322FA03F313F0010FE8D1C8
:1013BC00236813F0100F00F0E4801E4B9B6813F0B1
:1013CC000C0F72D14FF4007393FAA3F3194B1A68F4
:1013DC004FF4007393FAA3F3B3FA83F303F01F03F0
:1013EC0022FA03F313F0010F03D0A369002B00F0D2
:1013FC005E82206A0F4B5B6803F4604398421BD9F2
:10140C00FFF760FE002840F054820A494B6823F431
:10141C006042236A13434B604B6823F07F40E369BF
:10142C004FF07F4292FAA2F2B2FA82F29340034357
:10143C004B601AE000380240B6494B6823F4604315
:10144C00184348604B6823F07F40E3694FF07F42BC
:10145C0092FAA2F2B2FA82F2934003434B60206AF2
:10146C00FFF730FE002840F02682236A4FF46042DA
:10147C0092FAA2F2B2FA82F2D3405A1C4FF4004311
:10148C009340A44A926802F0F001F02292FAA2F280
:10149C00B2FA82F221FA02F29F498A5CD3409F4A47
:1014AC0013600020FEF764FF6BE0A369002B3ED0B5
:1014BC004FF4807393FAA3F3B3FA83F39B0003F115
:1014CC00844303F58E0301221A60FEF77BFF054669
:1014DC0005E0FEF777FF401B022800F2EE814FF487
:1014EC00007393FAA3F38B4B1A684FF4007393FABF
:1014FC00A3F3B3FA83F303F01F0322FA03F313F0FD
:10150C00010FE6D083494B6823F46042236A1343EE
:10151C004B604B6823F07F40E3694FF07F4292FAB7
:10152C00A2F2B2FA82F2934003434B6029E04FF4EB
:10153C00807393FAA3F3B3FA83F39B0003F1844310
:10154C0003F58E0300221A60FEF73CFF054605E00A
:10155C00FEF738FF401B022800F2B1814FF40073F4
:10156C0093FAA3F36B4B1A684FF4007393FAA3F33B
:10157C00B3FA83F303F01F0322FA03F313F0010F02
:10158C00E6D1236813F0080F47D0636913B3012227
:10159C0092FAA2F3B3FA83F3614941F82320FEF7E0
:1015AC0011FF054605E0FEF70DFF401B022800F277
:1015BC008881022393FAA3F2564A526B93FAA3F34F
:1015CC00B3FA83F303F01F0322FA03F313F0010FB2
:1015DC00E9D022E0012393FAA3F3B3FA83F30021B9
:1015EC004F4A42F82310FEF7EDFE054605E0FEF7E4
:1015FC00E9FE401B022800F26681022393FAA3F253
:10160C00444A526B93FAA3F3B3FA83F303F01F0328
:10161C0022FA03F313F0010FE9D1236813F0040F3E
:10162C0000F0A1803B4B5B6A13F0805F0BD1394B10
:10163C005A6A42F080525A625B6A03F080530193FB
:10164C00019B012500E00025364B1B6813F4807FBD
:10165C0013D1344A136843F480731360FEF7B2FE5F
:10166C00064605E0FEF7AEFE801B642800F22D81D5
:10167C002C4B1B6813F4807FF4D0A368012B05D18D
:10168C00244A536B43F4807353631FE04BB9214BD3
:10169C005A6B22F480725A635A6B22F480625A633A
:1016AC0014E0052B09D11B4B5A6B42F480625A6330
:1016BC005A6B42F480725A6308E0164B5A6B22F450
:1016CC0080725A635A6B22F480625A63A368EBB13E
:1016DC00FEF778FE064607E0FEF774FE801B41F22B
:1016EC008833984200F2F3804FF4007393FAA3F21C
:1016FC00084A526B93FAA3F3B3FA83F303F01F0374
:10170C0022FA03F313F0010FE6D026E0FEF75AFE9F
:10171C00064611E000380240E83700080C000020B3
:10172C008006474200700040FEF74CFE801B41F2E1
:10173C008833984200F2CD804FF4007393FAA3F2F1
:10174C006A4A526B93FAA3F3B3FA83F303F01F03C1
:10175C0022FA03F313F0010FE6D125B1634A536A61
:10176C0023F080535362636A002B00F0B4805F4A0D
:10177C00926802F00C020C2A00F0AF80022B5FD1B1
:10178C004FF0807393FAA3F3B3FA83F39B0003F146
:10179C00844303F58E0300221A60FEF713FE054600
:1017AC0005E0FEF70FFE401B022800F298804FF078
:1017BC00007393FAA3F34D4B1A684FF0007393FA2E
:1017CC00A3F3B3FA83F303F01F0322FA03F313F02A
:1017DC00010FE6D14548836823F47D01A26AE36AD0
:1017EC001343226B13430B4383604FF0807393FAC4
:1017FC00A3F3B3FA83F39B0003F1844303F58E0345
:10180C0001221A60FEF7DEFD044604E0FEF7DAFD65
:10181C00001B022865D84FF0007393FAA3F3334BE7
:10182C001A684FF0007393FAA3F3B3FA83F303F03F
:10183C001F0322FA03F313F0010FE7D0002053E04B
:10184C004FF0807393FAA3F3B3FA83F39B0003F185
:10185C00844303F58E0300221A60FEF7B3FD0446A1
:10186C0004E0FEF7AFFD001B02283CD84FF00073DC
:10187C0093FAA3F31D4B1A684FF0007393FAA3F37A
:10188C00B3FA83F303F01F0322FA03F313F0010FEF
:10189C00E7D1002028E0012026E0032024E00320EB
:1018AC0022E0012020E003201EE003201CE00120A8
:1018BC001AE0012018E0012016E0032014E00320B8
:1018CC0012E0032010E003200EE003200CE00320C4
:1018DC000AE0032008E0002006E0012004E00320D9
:1018EC0002E0032000E0032002B070BD003802408B
:1018FC00234B9B6803F00C02082A3ED00C2A03D021
:10190C00042A28D11F48704703F470114FF4701249
:10191C0092FAA2F2B2FA82F221FA02F21A49895C24
:10192C0003F440034FF4400090FAA0F0B0FA80F0BA
:10193C00C3400133124A926812F4803F05D0134819
:10194C0000FB01F0B0FBF3F070470E4A02FB01F014
:10195C00B0FBF3F070470A4B586800F460434FF447
:10196C00604090FAA0F0B0FA80F023FA00F0013059
:10197C004FF4004303FA00F070470448704700BF6F
:10198C00003802400024F4000038000800366E01D4
:10199C0070B5924B1B6803F001038B4212D20129E4
:1019AC0004D18E4A136843F0040313608B4A136806
:1019BC0023F001030B431360136803F001039942F6
:1019CC0040F0F780036813F0020F06D0844CA36834
:1019DC0023F0F00283681343A3600D4604460368AA
:1019EC0013F0010F00F09F804368022B13D14FF4CA
:1019FC00003292FAA2F27A4A11684FF4003292FA4B
:101A0C00A2F2B2FA82F202F01F0221FA02F212F0F2
:101A1C00010F3ED1CFE0032B13D14FF0007292FA9D
:101A2C00A2F26F4A11684FF0007292FAA2F2B2FA67
:101A3C0082F202F01F0221FA02F212F0010F28D1F9
:101A4C00BBE0012B11D1022292FAA2F2644A116876
:101A5C00022292FAA2F2B2FA82F202F01F0221FAE8
:101A6C0002F212F0010F14D1A9E04FF4007292FAB5
:101A7C00A2F25B4A11684FF4007292FAA2F2B2FA27
:101A8C0082F202F01F0221FA02F212F0010F00F0B2
:101A9C00988053498A6822F0030213438B60FEF747
:101AAC0091FC06466368022B0FD107E0FEF78AFC17
:101ABC00801B41F28833984200F28580484B9B682A
:101ACC0003F00C03082BF1D12DE0032B0ED106E013
:101ADC00FEF778FC801B41F28833984275D8404B56
:101AEC009B6803F00C030C2BF2D11CE0012B15D1DD
:101AFC0006E0FEF767FC801B41F28833984266D8FB
:101B0C00374B9B6803F00C03042BF2D10BE0FEF770
:101B1C0059FC801B41F2883398425AD8304B9B6851
:101B2C0013F00C0FF3D12D4B1B6803F001039D42F6
:101B3C0011D2012D04D1294A136843F00403136018
:101B4C00264A136823F001032B431360136803F038
:101B5C0001039D423FD1236813F0040F06D02049A6
:101B6C008B6823F4E062E36813438B60236813F003
:101B7C00080F07D01A4A936823F46053216943EA8B
:101B8C00C1039360FFF7B4FE154B9B6803F0F002A2
:101B9C00F02393FAA3F3B3FA83F322FA03F3114A73
:101BAC00D35CD840104B18600020FEF7E1FB0020FE
:101BBC0070BD012070BD012070BD012070BD0120E1
:101BCC0070BD012070BD032070BD032070BD0320CB
:101BDC0070BD032070BD012070BD00BF003C0240F1
:101BEC0000380240E83700080C000020014B186850
:101BFC00704700BF0C00002008B5FFF7F7FF084B3B
:101C0C009B6803F4E0624FF4E06393FAA3F3B3FA36
:101C1C0083F322FA03F3034AD35CD84008BD00BF18
:101C2C0000380240F837000808B5FFF7DFFF084B13
:101C3C009B6803F460524FF4605393FAA3F3B3FA26
:101C4C0083F322FA03F3034AD35CD84008BD00BFE8
:101C5C0000380240F83700082DE9F84304460168C3
:101C6C000B6923F44052C36813430B618168036909
:101C7C00194343691943C36919430068C26822F4C4
:101C8C00164323F00C030B43C36021684B6923F408
:101C9C004072A36913434B61E369B3F5004F40F005
:101CAC00B2802768AF4B9F4255D1FFF7BDFF00EBC9
:101CBC00800000EB800065686D00B0FBF5F5AA4E66
:101CCC00A6FB05356D092D01FFF7AEFF00EB80007B
:101CDC0000EB800063685B00B0FBF3F9FFF7A4FF37
:101CEC0000EB800000EB800063685B00B0FBF3F35B
:101CFC00A6FB03235B094FF0640808FB1393DB007E
:101D0C003233A6FB03235B095B0003F4F8731D4419
:101D1C00FFF78AFF00EB800000EB800063685B003C
:101D2C00B0FBF3F9FFF780FF00EB800000EB8000C5
:101D3C0063685B00B0FBF3F3A6FB03235B0908FBB2
:101D4C001393DB003233A6FB0336C6F3421635443D
:101D5C00BD60BDE8F883FFF74FFF00EB800000EBA0
:101D6C00800065686D00B0FBF5F57F4EA6FB053570
:101D7C006D092D01FFF740FF00EB800000EB8000A8
:101D8C0063685B00B0FBF3F9FFF736FF00EB8000F4
:101D9C0000EB800063685B00B0FBF3F3A6FB03234E
:101DAC005B094FF0640808FB1393DB003233A6FB8E
:101DBC0003235B095B0003F4F8731D44FFF71CFF5E
:101DCC0000EB800000EB800063685B00B0FBF3F974
:101DDC00FFF712FF00EB800000EB800063685B00F4
:101DEC00B0FBF3F3A6FB03235B0908FB13984FEA44
:101DFC00C80808F13208A6FB0836C6F3421635446B
:101E0C00BD60BDE8F8832668564B9E4254D1FFF75F
:101E1C000BFF00EB800000EB80006568AD00B0FBB1
:101E2C00F5F5514FA7FB05356D092D01FFF7FCFEAC
:101E3C0000EB800000EB800063689B00B0FBF3F8C4
:101E4C00FFF7F2FE00EB800000EB800063689B0064
:101E5C00B0FBF3F3A7FB03235B094FF0640909FB09
:101E6C0013831B013233A7FB03235B0903F0F0033D
:101E7C001D44FFF7D9FE00EB800000EB8000636887
:101E8C009B00B0FBF3F8FFF7CFFE00EB800000EBFC
:101E9C00800063689B00B0FBF3F3A7FB03235B0993
:101EAC0009FB13831B013233A7FB0323C3F3431337
:101EBC001D44B560BDE8F883FFF79EFE00EB800083
:101ECC0000EB80006568AD00B0FBF5F5264FA7FB75
:101EDC0005356D092D01FFF78FFE00EB800000EB3F
:101EEC00800063689B00B0FBF3F8FFF785FE00EB06
:101EFC00800000EB800063689B00B0FBF3F3A7FB52
:101F0C0003235B094FF0640909FB13831B01323374
:101F1C00A7FB03235B0903F0F0031D44FFF76CFEE2
:101F2C0000EB800000EB800063689B00B0FBF3F8D3
:101F3C00FFF762FE00EB800000EB800063689B0003
:101F4C00B0FBF3F3A7FB03235B0909FB13831B0112
:101F5C003233A7FB0323C3F343131D44B560BDE821
:101F6C00F88300BF003801401F85EB512DE9F0418B
:101F7C0005460E4690461C46FEF724FA0746B8F175
:101F8C00000F26D053E0B4F1FF3F22D024B1FEF76E
:101F9C0019FAC01B84421CD22A68D36823F0800330
:101FAC00D3602A68D36823F02003D3602A68D368EF
:101FBC0023F48073D3602A68536923F001035361BF
:101FCC00012385F83930002385F838300320BDE82B
:101FDC00F0812B681B6836EA0303D4D10020BDE8DE
:101FEC00F081B4F1FF3F22D024B1FEF7EBF9C01B16
:101FFC0084421CD22A68D36823F08003D3602A68F9
:10200C00D36823F02003D3602A68D36823F4807349
:10201C00D3602A68536923F001035361012385F8C7
:10202C003930002385F838300320BDE8F0812B6867
:10203C001B6836EA0303D4D00020BDE8F08100BF52
:10204C0058B310B5044690F8393013F0FF0F04D193
:10205C00002380F8383000F04DFD022384F839302D
:10206C002268D36823F40053D3602046FFF7F4FDB5
:10207C002268136923F4904313612268536923F097
:10208C002A0353612268D36843F40053D3600020C1
:10209C00E063012384F8393010BD0120704700BF84
:1020AC0070B504460D461E4690F83930DBB2012B54
:1020BC0001D0222B5AD1002D5AD0002A5AD094F894
:1020CC003830012B58D0012384F838300023E363D7
:1020DC0094F83930DBB2222B03D1322384F8393017
:1020EC0002E0122384F83930A284E28423E0013B1D
:1020FC00E384A368B3F5805F12D1334600228021BC
:10210C002046FFF733FF002838D122682B88C3F311
:10211C000803536023690BB902350CE001350AE062
:10212C003346002280212046FFF720FF40BB236866
:10213C002A785A600135E38C002BD8D13346002223
:10214C0040212046FFF712FF0346D8B994F83920F6
:10215C00D2B2322A03D1222284F8392002E00122A1
:10216C0084F83920002284F838200CE002230AE09D
:10217C00012308E0012306E0022304E0032302E02C
:10218C00032300E00323184670BD00BFFEE700BF29
:10219C0008B50D4B1B6813B90C4A0B4B1A600A4B54
:1021AC001A68C31C23F00303134409498B4206D954
:1021BC0000F01AFD0C2303604FF0FF3008BD0249FC
:1021CC000B60104608BD00BFE8010020680300202A
:1021DC00003C012001230360014B0B60704700BFE2
:1021EC00040000200FB400B583B004AB53F8042BEB
:1021FC0001938021064800F0D9FE002803DD01463A
:10220C00034800F007F803B05DF804EB04B0704726
:10221C00F00100204FF0FF30704700BF08B500F010
:10222C0087F8024B024A9A6008BD00BF00ED00E03F
:10223C000000000808B500F09FF808BDF8B504468A
:10224C000D4617461E462648FFF7CCFF2168254849
:10225C00FFF7C8FF61682448FFF7C4FFA168234853
:10226C00FFF7C0FFE1682248FFF7BCFF2169214856
:10227C00FFF7B8FF61692048FFF7B4FFA1691F4859
:10228C00FFF7B0FFE1691E48FFF7ACFF1D48FFF7F1
:10229C00A9FF29461C48FFF7A5FF1C4CE16A1C4806
:1022AC00FFF7A0FF216B1B48FFF79CFFE16B1A485F
:1022BC00FFF798FF15F0800F03D039461748FFF74A
:1022CC0091FF15F4004F03D031461548FFF78AFFF4
:1022DC001448FFF787FF06991348FFF783FFF8BDF3
:1022EC00A0360008B0360008C0360008D03600080A
:1022FC00E0360008F03600080037000810370008F8
:10230C0020370008303700083C37000800ED00E0AB
:10231C004C3700085C3700086C3700087C37000825
:10232C008C3700089C370008A4370008FEE7000033
:10233C000E4B1A6842F480721A6099680C4A0A4073
:10234C009A601A6822F0885222F001121A601A68F8
:10235C0022F480221A609A6822F47D029A6000228C
:10236C00DA604FF00062034B9A607047003802400D
:10237C000CC0FF8800ED00E02B4B9B6803F00C03B6
:10238C000C2B3AD8DFE803F00739393913393939CE
:10239C00173939391B00244B5B68C3F342330133C3
:1023AC004FF4004202FA03F3204A136030E0204A53
:1023BC001E4B1A602CE01E4A1C4B1A6028E01A4A6D
:1023CC0091689368C1F383411A48405CC3F381530D
:1023DC000133926812F4803F07D1154901FB00F2DA
:1023EC00B2FBF3F3114A136012E0114A02FB00F244
:1023FC00B2FBF3F30D4A13600AE00B4B5B68C3F3BB
:10240C00423301334FF4004202FA03F3074A1360DC
:10241C00054B9B68C3F30313074AD15C034A13684B
:10242C00CB401360704700BF003802400C00002006
:10243C0000127A0000380008E837000810B588B0A0
:10244C00184BDA6942F00102DA61DA6902F0010232
:10245C000092009ADA6942F00402DA61DA6902F059
:10246C0004020192019ADA6942F00202DA61DB6934
:10247C0003F002030293029B4FF4807303930A4B05
:10248C0004930024059403A90848FEF72BF8224670
:10249C0021461720FDF7BCFF1720FDF7EBFF08B016
:1024AC0010BD00BF0038024000003110000802408F
:1024BC0000B585B08DF80C108DF80D20400081B260
:1024CC004FF0FF330093022303AA0348FEF7B6FB39
:1024DC0005B05DF804FB00BF8802002070B584B025
:1024EC000446084616461D46194600F051FC61008C
:1024FC0089B24FF0FF3302930195009001233246CD
:10250C000248FEF759FC04B070BD00BF88020020E1
:10251C0010B5B2B0012100F03BFC044601230722A8
:10252C0001460E20FFF7DAFF22780C49684600F0CE
:10253C0047FC684600F068FC4FF0FF3382B26946F6
:10254C000748FFF7ADFD2378C42B03D10120054BC1
:10255C00187000E0002032B010BD00BF0C3800082D
:10256C00240300207402002038B5FFF7D1FF0128A6
:10257C0021D1174D284600F047FC164C4FF0FF3385
:10258C0082B229462046FFF78BFD802211210E20B6
:10259C00FFF78EFF012210210E20FFF789FF0E4D51
:1025AC00284600F031FC4FF0FF3382B2294620461A
:1025BC00FFF776FD38BD094C204600F025FC4FF0A6
:1025CC00FF3382B221460348FFF76AFD38BD00BFD6
:1025DC001C380008240300202C3800084038000860
:1025EC0010B40023CB734FF4803307E04A1C034232
:1025FC0001D0312400E030240C7011465B10F5D171
:10260C0010BC70472DE9F04385B089466946FFF749
:10261C00E7FF684600F0F8FB00EBD0756D10441B2B
:10262C00681C00F0E7FA80462A46694600F0F2FA88
:10263C00002608F80560601C00F0DCFA074622460C
:10264C000DEB050100F0E6FA3E55022231464046FC
:10265C0000F06AFCC9F8000002223146384600F04E
:10266C0063FCC9F80400404600F0CCFA384600F090
:10267C00C9FA05B0BDE8F083F0B58DB007460E463B
:10268C00042954DC00240494069407940894CDF88F
:10269C00234041238DF80C3054238DF80D30242326
:1026AC008DF80E3044238DF80F30C0238DF8103088
:1026BC0014238DF8123034238DF8133001238DF848
:1026CC00143032228DF81520D7228DF816208DF873
:1026DC00173010228DF819208DF81A3020228DF821
:1026EC001B208DF81C3008238DF81E30132514E0A8
:1026FC0001A957F82400FFF785FF0CAB2B44019A76
:10270C0003F8242C6B1C0CAA1344029A03F8242CF7
:10271C0002350134002301930293B442E8DB4FF0FD
:10272C00FF331B2203A92D48FFF7BAFC53E00829FD
:10273C0051DC2322002103A800F077FA41238DF805
:10274C000C3054238DF80D3024238DF80E30442397
:10275C008DF80F30C0238DF810301C238DF81230FB
:10276C0034238DF8133001238DF8143032228DF878
:10277C001520D7228DF816208DF8173010228DF8E1
:10278C0019208DF81A3020218DF81B108DF81C3073
:10279C008DF81E201325002414E001A957F82400FD
:1027AC00FFF730FF0CAB2B44019A03F8242C6B1C65
:1027BC000CAA1344029A03F8242C0235013400238A
:1027CC0001930293B442E8DB4FF0FF33232203A9B9
:1027DC000248FFF765FC0DB0F0BD00BFDC02002025
:1027EC00704700BFFEE700BF08B50A480A4B0360FC
:1027FC000A4B436000238360C3604FF48042026144
:10280C0043618361C3610362FEF766F908B1FFF7A8
:10281C00E9FF08BD8802002000540040A08601009A
:10282C0008B50B480B4B03604FF4E13343600023B6
:10283C008360C36003610C2242614FF44072826179
:10284C00C361FFF7FDFB08B1FFF7CCFF08BD00BF6C
:10285C00240300200044004008B50B480B4B0360D8
:10286C004FF4E133436000238360C36003610C22A7
:10287C0042614FF440728261C361FFF7E1FB08B122
:10288C00FFF7B0FF08BD00BFDC020020003801409C
:10289C0000B593B01B4A136823F4C05343F4006390
:1028AC0013601023059301230B9300230C934FF417
:1028BC0020420D920E9305A8FEF74CFC08B1FFF7D1
:1028CC0091FF0F2300930021019102910391049138
:1028DC006846FFF75DF808B1FFF784FFFFF786F94C
:1028EC00094BA3FB00308009FDF7D0FD0420FDF758
:1028FC00E3FD002211464FF0FF30FDF789FD13B0C8
:10290C005DF804FB00700040D34D6210F0B5C1B00F
:10291C00082000F06FF90446FDF740FDFFF7B8FF03
:10292C00FFF78CFDFFF760FFFFF77AFFFFF794FFCF
:10293C002046FFF719FE0623012221460E20FFF741
:10294C00CDFD082000F056F904460623012201466D
:10295C000E20FFF7C3FD2178637843EA012109B209
:10296C00224D2980A278E37843EA022212B2204E4B
:10297C0032802079637943EA00231BB21D4F3B80E0
:10298C004CF2C7700A900B910C920D9304210AA87B
:10299C00FFF772FE23786278A178E07894F804E06F
:1029AC0064790894CDF81CE0069005910492039389
:1029BC00B7F900300293B6F900300193B5F9003045
:1029CC000093C7231A460C490EA800F0F9F90EA87B
:1029DC0000F01AFA4FF0FF3382B20EA90748FFF746
:1029EC005FFB4FF4FA60FDF7F3FCAAE770020020DE
:1029FC0072020020760200206838000824030020B0
:102A0C0000B585B0254B5A6A42F000425A625A6AA8
:102A1C0002F000420192019A1A6A42F001021A6213
:102A2C001A6A02F001020292029A5A6A42F0805229
:102A3C005A625B6A03F080530393039B0320FDF7F8
:102A4C00D5FC002211466FF00B00FDF7E1FC0022D3
:102A5C0011466FF00A00FDF7DBFC002211466FF007
:102A6C000900FDF7D5FC002211466FF00400FDF7BC
:102A7C00CFFC002211466FF00300FDF7C9FC0022C9
:102A8C0011466FF00100FDF7C3FC002211464FF018
:102A9C00FF30FDF7BDFC05B05DF804FB00380240CB
:102AAC000268114B9A421DD100B587B0C023019327
:102ABC00122302930123039303230493042305930A
:102ACC000DEB03010948FDF70DFD094B5A6A42F461
:102ADC0000125A625B6A03F400130093009B07B068
:102AEC005DF804FB704700BF005400400004024036
:102AFC0000380240F0B589B00368294A934226D1C8
:102B0C00284B1A6A42F480421A621B6A03F480430F
:102B1C000193019B4FF4C063039302270497012395
:102B2C00059303260696072507951F4C03A92046F7
:102B3C00FDF7D8FC4FF4C05303930497002305937F
:102B4C000696079503A92046FDF7CCFC25E0174A0D
:102B5C00934222D1134B5A6A42F400325A625B6A96
:102B6C0003F400330293029B03240394022704977B
:102B7C00002305930694072607960B4D03A92846B8
:102B8C00FDF7B0FC0C2303930497012305930694E3
:102B9C00079603A92846FDF7A5FC09B0F0BD00BFB8
:102BAC000038014000380240000002400044004060
:102BBC00704700BFFEE700BFFEE700BFFEE700BFA7
:102BCC00FEE700BF704700BF704700BF704700BFF3
:102BDC0008B5FDF7EFFBFDF781FC08BD08B54FF418
:102BEC008070FDF755FD08BD014B1868704700BF9C
:102BFC0070000020024B0146186800F06BB800BF53
:102C0C0070000020024B0146186800F017B800BF96
:102C1C007000002010B5431E0A44914204D011F8F4
:102C2C00014B03F8014FF8E710BD034602449342F1
:102C3C0002D003F8011BFAE77047000038B50546CF
:102C4C00002944D051F8043C0C1F002BB8BFE418E9
:102C5C0000F0CFF91E4A1368114613B96360146073
:102C6C0030E0A3420DD92268A018834201BF186836
:102C7C005B681218226063600C6023E0A24203D8E8
:102C8C0013465A68002AF9D118681918A1420BD1B9
:102C9C002168014458188242196013D11068526897
:102CAC00014419605A600DE002D90C232B6009E035
:102CBC0021686018824201BF1068526809182160AF
:102CCC0062605C602846BDE8384000F093B938BDBE
:102CDC007C02002070B5CD1C25F0030508350C2DA9
:102CEC0038BF0C25002D064601DBA94202D90C2366
:102CFC00336046E000F07DF9234B1C681A462146F0
:102D0C00A1B10B685B1B0ED40B2B03D90B60CC1839
:102D1C00CD501EE08C420BBF63684B681360636040
:102D2C0018BF0C4615E00C464968E9E7174C2368B8
:102D3C001BB9304600F034F820602946304600F0CC
:102D4C002FF8431C18D0C41C24F00304A0420DD14E
:102D5C002560304600F04EF904F10B00231D20F0E5
:102D6C000700C31A0ED05A42E25070BD211A3046E9
:102D7C0000F016F80130EBD10C233360304600F034
:102D8C0039F9002070BD00BF7C02002078020020C1
:102D9C00024B0A460146186800F02DB9700000205D
:102DAC0038B5064C0023054608462360FFF7F0F9BA
:102DBC00431C02D1236803B12B6038BD8402002070
:102DCC000EB400B54FF402719CB0ADF814106FF056
:102DDC000041049107914FF6FF711DAB02900690D4
:102DEC00084853F8042BADF81610006802A901939B
:102DFC0000F080F9029B00221A701CB05DF804EB05
:102E0C0003B0704770000020034613F8012B002A12
:102E1C00FBD1181A013870472DE9F04780468946D6
:102E2C0092461E460F463D46089815F8014B00F099
:102E3C00CBF82044427802F0080202F0FF030AB1FA
:102E4C002F46F0E72D2C03D1BD1C7C78012303E029
:102E5C002B2C04BF7C78BD1C16B1102E0AD15EE061
:102E6C00302C5AD12A7802F0DF02582A50D16C78D3
:102E7C0010260235002B14BF4FF000426FF00042B9
:102E8C00B2FBF6FE06FB1E2100221046A4F1300711
:102E9C00092F01D83C460AE0A4F14107192F01D8AB
:102EAC00373C04E0A4F16107192F13D8573CA64214
:102EBC0010DD571C0BD0864507D301D1A14203DB93
:102ECC0000FB0640012202E070464FF0FF3215F87D
:102EDC00014BDBE7511C0ED1002B4FF0220314BF2A
:102EEC004FF000406FF00040C8F80030BAF1000F0E
:102EFC0007D1BDE8F08703B14042BAF1000F11D001
:102F0C000AB1013D00E04D46CAF80050BDE8F0871B
:102F1C003024002EAED10826ACE70A26AAE7302CC6
:102F2C00A0D0A7E7BDE8F087084B37B51C68084D63
:102F3C00236A002B08BF2B46009313460A46014612
:102F4C002046FFF769FF03B030BD00BF70000020C2
:102F5C007400002030B5141E05469BB0184604DAE8
:102F6C008B232B604FF0FF301DE04FF40273ADF854
:102F7C000C300CBF234604F1FF33029305934FF63C
:102F8C00FF7300910491ADF80E3002461E9B69460A
:102F9C00284600F0AFF8431CBCBF8B232B6014B148
:102FAC00009B00221A701BB030BD000007B50093C7
:102FBC0013460A46014603480068FFF7CBFF03B0EF
:102FCC005DF804FB70000020D0F8EC00704782B074
:102FDC0001B901A93AB143B113780B601278101CF6
:102FEC0018BF012003E0104601E06FF0010002B0B1
:102FFC00704770477047F8B5074615460E4621B91D
:10300C001146BDE8F840FFF765BE1AB9FFF716FE8A
:10301C002846F8BD00F034FB85420ED929463846C7
:10302C00FFF758FE044650B131462A46FFF7F2FD31
:10303C0031463846FFF702FE01E03046F8BD204627
:10304C00F8BD2DE9F0478E6882469E420C469146AB
:10305C0098463ED88A8912F4906F3AD0256809694F
:10306C0002236F1A656905EB450595FBF3F57B1C8F
:10307C0043449D4238BF1D4653050FD52946FFF7E3
:10308C0029FE064698B13A462169FFF7C3FDA3898C
:10309C0023F4906343F08003A38113E02A46FFF7E7
:1030AC00AAFF064670B921695046FFF7C7FD0C23ED
:1030BC00CAF80030A3894FF0FF3043F04003A381DE
:1030CC00BDE8F08726613E44266046466561ED1BEF
:1030DC00A560464528BF464649463246206800F062
:1030EC00B4FAA36800209B1BA36023681E442660CF
:1030FC00BDE8F0872DE9F04F9DB003938B89804696
:10310C001C060D4616460DD50B695BB94021FFF721
:10311C00E1FD2860286118B90C23C8F80030CDE017
:10312C0040236B610023099320238DF82930DFF8AD
:10313C009CB130238DF82A3037463C4614F8013BBD
:10314C001BB9B7EB060910D003E0252BF9D02746A5
:10315C00F3E74B46324629464046FFF772FF0130F3
:10316C0000F0A780099B4B4409933B78002B00F09F
:10317C00A08000234FF0FF3204930793059206932F
:10318C008DF853301A930126052221784E4800F011
:10319C004EFA671C049B38B14B4A3C46801A06FA1F
:1031AC0000F018430490EFE7D90644BF20228DF8B5
:1031BC0053201A0744BF2B228DF8532022782A2A39
:1031CC0003D0079A00210A200BE0039A111D126804
:1031DC000391002A10DA524243F002000792049045
:1031EC000BE027463B780134303B092B03D800FB1E
:1031FC0002320121F5E701B107923B782E2B1ED14B
:10320C007B782A2B0AD1039B02371A1D1B68039269
:10321C00002BB8BF4FF0FF33059310E00023194685
:10322C000593781C0A2407463A780130303A092A6B
:10323C0003D804FB01210123F5E703B10591032217
:10324C003978224800F0F3F940B14023CBEB000071
:10325C0003FA00F0049B01371843049039780622D6
:10326C001B487E1C8DF8281000F0E1F988B1194B31
:10327C0033B9039B073323F007030833039314E09C
:10328C0003AB00932A46144B04A94046AFF30080CD
:10329C0007E003AB00932A460F4B04A9404600F00D
:1032AC0093F8B0F1FF3F824603D0099B5344099336
:1032BC0042E7AB895B0601D4099801E04FF0FF307F
:1032CC001DB0BDE8F08F00BFA6380008AC38000870
:1032DC00B0380008000000004F3000082DE9F0471E
:1032EC0091461F460A698B6806469342B8BF13463F
:1032FC00C9F8003091F843200C46DDF8208012B15B
:10330C000133C9F800302368990642BFD9F8003060
:10331C000233C9F80030256815F0060510D104F108
:10332C00190A07E00123524639463046C04701309E
:10333C001AD00135E368D9F800209B1A9D42F1DBC5
:10334C0094F843302268003318BF012392060FD53E
:10335C00E118302081F843005A1C94F8451022449F
:10336C00023382F8431003E04FF0FF30BDE8F087E2
:10337C0004F1430239463046C0470130F4D022688C
:10338C00D9F80050E36802F00602042A08BF5D1B5E
:10339C002269A3680CBF25EAE57500259342C4BFDA
:1033AC009B1AED184FF000091A344D4509D0012332
:1033BC00224639463046C0470130D5D009F10109C3
:1033CC00F3E70020BDE8F0872DE9F04317460A7EAD
:1033DC0085B06E2A984606460C460C9B01F1430EAE
:1033EC0000F0AE8011D8632A22D009D8002A00F050
:1033FC00BB80582A40F0CA8081F84520834955E0AB
:10340C00642A1ED0692A1CD0C0E0732A00F0B08058
:10341C0009D86F2A2ED0702A40F0B8800A6842F082
:10342C0020020A603EE0752A24D0782A3AD0ADE01A
:10343C001A6801F14205111D1960136884F84230B5
:10344C00A8E021681A6811F0800F02D0111D1960D4
:10345C0008E011F0400F02F10401196002D0B2F93A
:10346C00003000E01368002B3CDA2D225B4284F81C
:10347C00432037E021681A6811F0800F02D0111D2B
:10348C00196007E011F0400F02F10401196001D03E
:10349C00138800E01368227E5C496F2A14BF0A224D
:1034AC0008221BE078225A4984F8452022681868C3
:1034BC0012F0800F00F104051D6003D1550601D5F3
:1034CC00038800E00368D00744BF42F0200222606A
:1034DC001BB9226822F0200222601022002084F8FE
:1034EC00430001E049490A226568002DA56008DB0C
:1034FC00206820F0040020602BB9002D7DD175468A
:10350C000CE0002B79D07546B3FBF2F002FB1033C4
:10351C00CB5C05F8013D03460028F5D1082A0BD1F8
:10352C002368DA0708D5236962689A42DEBF302324
:10353C0005F8013C05F1FF35C5EB0E0323612EE0C8
:10354C0008681A6810F0800F496903D0101D1860C4
:10355C00136808E010F0400F02F1040018601368C3
:10356C0001D0198000E0196000232361754616E034
:10357C001A68111D1960156800216268284600F050
:10358C0056F808B1401B6060636804E004F1420522
:10359C0084F8422001232361002384F84330CDF8C2
:1035AC0000803B4603AA21463046FFF797FE0130C8
:1035BC0002D14FF0FF3026E023692A4639463046C7
:1035CC00C0470130F5D023689B0710D5002504F1C6
:1035DC00190907E001234A4639463046C0470130F5
:1035EC00E7D00135E368039A9B1A9D42F2DBE06851
:1035FC00039B9842B8BF184605E00B7804F14205CE
:10360C0084F842308AE705B0BDE8F083B73800088B
:10361C00C838000849B1FF2A85BF8A2303600A70A5
:10362C004FF0FF3098BF012070470846704710B527
:10363C00C9B202449042034605D01C7801308C423A
:10364C00F8D1184610BD002010BD884210B501EB12
:10365C00020301D8421E0BE09842FBD28118D21A09
:10366C00D34204D013F8014D01F8014DF8E710BD19
:10367C00994204D011F8014B02F8014FF8E710BD44
:10368C0051F8040C0028BEBF091851F8043CC018AE
:10369C0004387047537461636B206672616D653AD0
:1036AC000A000000205230203D2020253038580AD6
:1036BC0000000000205231203D2020253038580ACF
:1036CC0000000000205232203D2020253038580ABE
:1036DC0000000000205233203D2020253038580AAD
:1036EC000000000020523132203D20253038580A8D
:1036FC0000000000204C52203D2020253038580A74
:10370C0000000000205043203D2020253038580A6E
:10371C000000000020505352203D20253038580A1C
:10372C00000000004653522F4641523A0A00000056
:10373C002043465352203D2020253038580A0000A3
:10374C002048465352203D2020253038580A00008E
:10375C002044465352203D2020253038580A000082
:10376C002041465352203D2020253038580A000075
:10377C00204D4D464152203D20253038580A00003E
:10378C002042464152203D2020253038580A000066
:10379C004D6973630A000000204C522F4558435F5B
:1037AC0052455455524E3D20253038580A000000E1
:1037BC005B486172644661756C745D0A00000000C0
:1037CC005B4275734661756C745D0A005B55736181
:1037DC0067654661756C745D0A00000000000000AE
:1037EC0000000000010203040607080900000000A5
:1037FC0001020304030406080C101820300000001A
:10380C004857204944203A2025640D0A0000000046
:10381C004D414720466F756E64200D0A0000000074
:10382C00496E6974207375636365737366756C2078
:10383C000D0A00004D4147206E6F7420666F756E47
:10384C00642E20506C6561736520636865636B2022
:10385C00776972696E672E200D0A000073796E63AA
:10386C003A25642025642C20783A256420793A2561
:10387C0064207A3A2564207C202C25642C25642C29
:10388C0025642C25642C25642C25640D0A0000006D
:10389C004300504F534958002E00232D302B20004D
:1038AC00686C4C00656667454647003031323334EE
:1038BC00353637383941424344454600303132338E
:1038CC003435363738396162636465660000202010
:1038DC0020202020202020282828282820202020B4
:1038EC002020202020202020202020202020881074
:1038FC0010101010101010101010101010100404D4
:10390C0004040404040404041010101010101041DA
:10391C00414141414101010101010101010101014B
:10392C0001010101010101010110101010101042E0
:10393C00424242424202020202020202020202021B
:10394C0002020202020202020210101010200000F9
:10395C00000000000000000000000000000000005B
:10396C00000000000000000000000000000000004B
:10397C00000000000000000000000000000000003B
:10398C00000000000000000000000000000000002B
:10399C00000000000000000000000000000000001B
:1039AC00000000000000000000000000000000000B
:1039BC0000000000000000000000000000000000FB
:0E39CC000000000000000000000000000000ED
:1039DC0078563412EC0100200000000068FF1F0034
:1039EC0000000000000000000000000000000000CB
:1039FC0000000000000000000000000000000000BB
:103A0C0000000000000000000000000000000000AA
:103A1C00000000000000000000000000000000009A
:103A2C00000000000000000000000000000000008A
:103A3C00000000000000000000000000000000007A
:103A4C0010000020430000000000000000000000F7
:103A5C00000000000000000000000000000000005A
:103A6C000000000043000000000000000000000007
:103A7C00000000000000000000000000000000003A
:103A8C0000000000430000000000000000000000E7
:103A9C00000000000000000000000000000000001A
:103AAC0000000000430000000000000000000000C7
:103ABC0000000000000000000000000000000000FA
:103ACC0000000000430000000000000000000000A7
:103ADC0000000000000000000000000000000000DA
:103AEC000000000043000000000000000000000087
:103AFC0000000000000000000000000000000000BA
:103B0C000000000043000000000000000000000066
:103B1C000000000000000000000000000000000099
:103B2C000000000021360008DB2F00080000000018
:103B3C00D9380008A4380008AB380008AB380008A6
:103B4C00AB380008AB380008AB380008AB380008BD
:103B5C00AB380008AB380008AB380008FFFFFFFF9C
:103B6C00FFFFFFFFFFFFFFFFFFFF000001004153BE
:103B7C004349490000000000000000000000000064
:103B8C000000000000000000000000000000415395
:103B9C004349490000000000000000000000000044
:103BAC000000000000000000000000000000000009
:043BBC003254769871
:040000050800013DB1
:00000001FF
