:1000000000000220510900007D0900007D09000068
:100010007D0900007D0900007D0900007D090000C8
:100020007D0900007D0900007D0900007D090000B8
:100030007D0900007D0900007D0900007D090000A8
:100040007D0900007D0900007D0900007D09000098
:100050007D0900007D0900007D0900007D09000088
:100060007D0900007D0900007D0900007D09000078
:100070007D0900007D0900007D0900007D09000068
:100080007D0900007D0900007D0900007D09000058
:100090007D0900007D0900007D0900007D09000048
:1000A0007D0900007D0900007D0900007D09000038
:1000B0007D0900007D090000950400007D09000015
:1000C0007D0900007D0900007D0900007D09000018
:1000D0007D0900007D0900007D09000010B5054C78
:1000E000237833B9044B13B10448AFF300800123E4
:1000F000237010BD7000002000000000000B000005
:1001000008B5064B1BB106480649AFF30080064808
:10011000036813B1054B03B1984708BD0000000008
:10012000000B0000740000206800002000000000A8
:10013000154B002B08BF134B9D46A3F5803A0021B9
:100140008B460F461348144A121A00F059FC0F4B05
:10015000002B00D098470E4B002B00D09847002072
:10016000002104000D000D48002802D00C48AFF318
:10017000008000F01FFC2000290000F033F800F0A0
:1001800005FC00BF00000800000002200000000085
:100190000000000070000020C000002000000000EF
:1001A0000000000080B582B000AF0C4B1B687B6084
:1001B0003B46184600F0B0F87B681B0E0F2B0AD99F
:1001C0003B78032B07D1064B054A126822F05002F8
:1001D00042F010021A600837BD4680BDFC81E00F76
:1001E000C0800C4080B500AFFFF7DCFF00F01CF8CA
:1001F00003483A2100F006F80023184680BD00BFEE
:100200002C0A000080B483B000AF78603960FEE74C
:1002100080B400AF034B4AF6E8529A60BD465DF8E1
:10022000047B704700600C4080B584B000AF114B78
:100230001B6823F00C0343F00803BB600D4B1B68E5
:1002400043F00C037B60FFF7E3FF0023FB6008E053
:10025000084BBA681A60074B7A681A60FB6801336A
:10026000FB60FB68032BF3DD024BBA681A601037A2
:10027000BD4680BD00600C4080B584B000AF7860A2
:100280007B68012B03D90D487921FFF7BBFF7B6801
:10029000002B02D0012B04D007E0094B9B68FB60C8
:1002A00006E0074BDB68FB6002E00023FB6000BF59
:1002B000FB6818461037BD4680BD00BF3C0A0000F1
:1002C0000000084080B584B000AF786039607B687A
:1002D000012B04D83B6803F07F43002B03D00B486D
:1002E000AA21FFF78FFF7B68002B02D0012B03D0E0
:1002F00008E0074BFB6002E0064BFB6000BFFB68B9
:100300003A681A601037BD4680BD00BF3C0A000045
:10031000080008400C00084080B584B000AF786049
:100320007B68002B03D11A484121FFF76BFF194B63
:100330005B69DBB203F00F03DBB29B00FB73154B71
:100340001B6903F0C0039B09DAB2FB7B1343FB7309
:100350007B68FA7B9A700F4B1B69DBB203F03F039B
:10036000DAB27B685A700B4B9B69DBB223F00F0348
:10037000FB73084BDB6903F0F0031B09DAB2FB7B6C
:100380001343FB737B68FA7B1A701037BD4680BD40
:10039000980A0000D0FF0FE080B400AF72B6084B9F
:1003A0001B68B3F1FF3F04D0054B1B685A1C044B7C
:1003B0001A60034B1B681846BD465DF8047B704706
:1003C0008C00002080B483B000AF0C4B1B68002B66
:1003D0000DD00A4B1B685A1E084B1A60074B1B684E
:1003E0007B607B68002B00D162B67B6800E0002355
:1003F00018460C37BD465DF8047B70478C00002022
:1004000080B400AF034B5B681846BD465DF8047BC3
:10041000704700BF0000084080B483B000AF786030
:10042000034B7A689A610C37BD465DF8047B7047D0
:100430000000084080B483B000AF7860054B054AE7
:10044000D1697A68D2430A40DA610C37BD465DF85B
:10045000047B70470000084080B483B000AF786030
:10046000054B054AD1697A680A43DA610C37BD4603
:100470005DF8047B704700BF0000084080B400AF07
:10048000034B1B691846BD465DF8047B704700BFEF
:100490000000084080B584B000AFFFF77DFFFFF794
:1004A000EDFFB860BB6803F00203002B39D01F4B8F
:1004B00001221A70FFF7A4FFF8600220FFF7BAFFCD
:1004C000FB681A021A4B1B681B02D31A1B0A7B60BB
:1004D000786800F031F800F083F9F86800F0B2F9BC
:1004E000FFF78EFFF860FB681A02114B1B681B02B6
:1004F000D31A1B0A7B600020FFF7BEFE03461A02D8
:100500000B4B1B681B02D31A1B0A3B60094B1B7861
:10051000002B03D07A683B689A42CED8034B002266
:100520001A70FFF74FFF1037BD4680BDBC0000209A
:10053000B8000020BD00002090B484B000AF786007
:100540000023FB6041E1A549FA6813469B00134470
:10055000DB000B44183300225A71A049FA68134695
:100560009B001344DB000B4418331B79002B00F075
:1005700029819A49FA6813469B001344DB000B4417
:10058000D3E90023796808464FF00001994208BF7B
:10059000904219D29149FA6813469B001344DB003C
:1005A0000B44D3E900017B681A464FF00003801A20
:1005B00061EB0301894CFA6813469B001344DB008E
:1005C0002344C3E90001FDE08449FA6813469B0017
:1005D0001344DB000B441833DB79002B0AD17F492D
:1005E000FA6813469B001344DB000B4418330022C7
:1005F0001A71D2E07949FA6813469B001344DB0074
:100600000B440833D3E900017B681A464FF000031E
:10061000801A61EB0301714CFA6813469B00134486
:10062000DB002344D3E90023801841EB03016B4C2A
:10063000FA6813469B001344DB002344C3E900011E
:100640006649FA6813469B001344DB000B441033E1
:100650001B68002B50DD6149FA6813469B00134468
:10066000DB000B44103359685C48FA6813469B0062
:100670001344DB00034410331B6819445748FA68DD
:1006800013469B001344DB00034410335960534965
:10069000FA6813469B001344DB000B4410335B687D
:1006A000F32B7AD94D49FA6813469B001344DB00BB
:1006B0000B44D3E90023501C43F10001474CFA6876
:1006C00013469B001344DB002344C3E90001434964
:1006D000FA6813469B001344DB000B4410335B683D
:1006E000A3F1F4013D48FA6813469B001344DB0074
:1006F00003441033596050E03849FA6813469B00B0
:100700001344DB000B44103359683448FA6813462D
:100710009B001344DB00034410331B68C91A2F48A5
:10072000FA6813469B001344DB00034410335960FE
:100730002A49FA6813469B001344DB000B4410332C
:100740005B68F32B29D92549FA6813469B001344AB
:10075000DB000B44D3E9002312F1FF3043F1FF31FA
:100760001E4CFA6813469B001344DB002344C3E984
:1007700000011A49FA6813469B001344DB000B443E
:1007800010335B68A3F1F4011448FA6813469B0028
:100790001344DB000344103359601049FA681346D0
:1007A0009B001344DB000B4418331B68002B09D05B
:1007B0000A49FA6813469B001344DB000B441833C4
:1007C00001225A71FB680133FB60FB68002B7FF745
:1007D000BAAE1037BD4690BC704700BF90000020F5
:1007E00090B583B000AF00237B6023E014497A68A2
:1007F00013469B001344DB000B4418335B79002B3A
:1008000015D00F497A6813469B001344DB000B4454
:1008100018331C6879680A487A6813469B001344A9
:10082000DB00034420331B6808461946A0477B6859
:1008300001337B607B68002BD8DD0C37BD4690BD53
:100840009000002080B58AB000AF78604FF0FF3292
:100850004FF0FF33C7E9062300237B6227E03749C7
:100860007A6A13469B001344DB000B4418331B7950
:10087000002B19D031497A6A13469B001344DB00E0
:100880000B44D3E90001D7E90623994208BF9042FF
:100890000AD22A497A6A13469B001344DB000B44B0
:1008A000D3E90023C7E906237B6A01337B627B6AB5
:1008B000002BD4DD224B00221A70D7E90623B3F1B6
:1008C000FF3F08BFB2F1FF3F35D0D7E90623C7E9A4
:1008D00004231C4BFB60FB681A464FF00003D7E96A
:1008E0000401994208BF904201D202460B46C7E973
:1008F0000623154B1B7883F00103DBB2002B05D0D8
:100900007B6823F07F42114B1A6002E00F4B7A683C
:100910001A600220FFF780FDBA697B68134423F058
:100920007F4300201946FFF7CDFC054B01221A70CA
:100930000220FFF791FD2837BD4680BD90000020C2
:10094000BD0000209BFFFF00BC000020B80000207D
:10095000064880470649074A074B9A42BEBF51F8EE
:10096000040B42F8040BF8E7FFF7E2FB81090000F3
:100970000C0B0000000000206C000020FEE700BF10
:1009800080B400AFBD465DF8047B704708B5074BE7
:10099000044613B10021AFF30080054B1868836A49
:1009A00003B19847204600F033F800BF0000000074
:1009B000FC0A000070B50E4B0E4D0024ED1AAD1070
:1009C0001E46AC4204D056F8242090470134F8E784
:1009D00000F020F8084D094B0024ED1AAD101E461A
:1009E000AC4204D056F8242090470134F8E770BD9B
:1009F00060000020600000206400002060000020F3
:100A000002440346934202D003F8011BFAE7704701
:100A1000FEE700BFF8B500BFF8BC08BC9E467047B3
:100A2000F8B500BFF8BC08BC9E4670472E2E2F7349
:100A300072632F6D61696E2E630000002F686F6D09
:100A4000652F636C6E782F53696D706C6963697480
:100A50007953747564696F2F53696D706C6963693C
:100A6000747953747564696F5F76332F6465766546
:100A70006C6F7065722F73646B732F65666D3332A4
:100A80002F76322F656D6C69622F7372632F656DDF
:100A90005F7274632E6300002F686F6D652F636C47
:100AA0006E782F53696D706C6963697479537475CE
:100AB00064696F2F53696D706C69636974795374DD
:100AC0007564696F5F76332F646576656C6F7065EA
:100AD000722F73646B732F65666D33322F76322FEE
:100AE000656D6C69622F7372632F656D5F737973C7
:100AF00074656D2E630000004300000000000020BC
:040B000000000000F1
:080B04002CF6FF7F0100000048
:100B0C0000000000000000000000000000000000D9
:100B1C0000000000000000000000000000000000C9
:100B2C00F80A0000000000000000000000000000B7
:100B3C0000000000000000000000000000000000A9
:100B4C000000000000000000000000000000000099
:100B5C000000000000000000000000000000000089
:0C0B6C0001010000DD000000000000009E
:04000003000009519F
:00000001FF
